:0400000007EF00F016
:0A0008005F8211ED09F0A6EF0BF086
:10100000003738392F3435362A3132332D23303DED
:101010002B00010E476E3F504010D8A412EF08F08D
:1010200014EF08F073EF08F0000E476E8EEF08F033
:1010300020EE01F03F50D9264050DA22DF50416EB9
:10104000010E426E412A27EF08F0D8904236412E19
:1010500025EF08F03FC0D9FF40C0DAFFDF50436EF4
:101060004350020D150EF324D96E000EF420DA6EF3
:10107000DECF44F0DDCF45F044C0D9FF45C0DAFFF4
:101080004250DF128EEF08F020EE01F03F50D926DB
:101090004050DA22DF50416E010E426E412A53EF7A
:1010A00008F0D8904236412E51EF08F04250FF0A26
:1010B000436E3FC0D9FF40C0DAFFDF50446E44505A
:1010C000020D150EF324D96E000EF420DA6EDECF79
:1010D00045F0DDCF46F045C0D9FF46C0DAFF4350AA
:1010E000DF168EEF08F020EE02F03F50D926405078
:1010F000DA22DF50416E426A4250000AD8B483EFD0
:1011000008F014EF08F04150000AD8B444EF08F09A
:10111000010AD8B418EF08F014EF08F04750120095
:10112000010E486E3F504010D8A499EF08F09BEF95
:1011300008F0FAEF08F0000E486E0FEF09F020EE0D
:1011400001F03F50D9264050DA22DF50426E010EA6
:10115000436E422AAEEF08F0D8904336422EACEFF1
:1011600008F03FC0D9FF40C0DAFFDF50446E445062
:10117000020D0B0EF324D96E000EF420DA6EDECFD2
:1011800045F0DDCF46F045C0D9FF46C0DAFF4350F9
:10119000DF120FEF09F020EE01F03F50D92640504A
:1011A000DA22DF50426E010E436E422ADAEF08F077
:1011B000D8904336422ED8EF08F04350FF0A446ED1
:1011C0003FC0D9FF40C0DAFFDF50456E4550020DE9
:1011D0000B0EF324D96E000EF420DA6EDECF46F04B
:1011E000DDCF47F046C0D9FF47C0DAFF4450DF16D5
:1011F0000FEF09F04150426E436A4350000AD8B4E1
:1012000004EF09F09BEF08F04250000AD8B4CBEF8E
:1012100008F0010AD8B49FEF08F09BEF08F048509F
:1012200012000600FACF39F0FBCF3AF0D9CF3BF0ED
:10123000DACF3CF0F3CF3DF0F4CF3EF0F2A823EF4D
:1012400009F025EF09F02EEF09F0F2A22AEF09F0DC
:101250002CEF09F02EEF09F09CEC0CF0F0A633EF28
:1012600009F035EF09F03EEF09F0F0A03AEF09F090
:101270003CEF09F03EEF09F09AEC0CF0F0A843EFD8
:1012800009F045EF09F04EEF09F0F0A24AEF09F03E
:101290004CEF09F04EEF09F098EC0CF09DAC53EFD9
:1012A00009F055EF09F05EEF09F09EAC5AEF09F036
:1012B0005CEF09F05EEF09F09EEC0CF0F2AA63EF30
:1012C00009F065EF09F06EEF09F0F2A46AEF09F09A
:1012D0006CEF09F06EEF09F096EC0CF09DA073EF47
:1012E00009F075EF09F07EEF09F09EA07AEF09F0A2
:1012F0007CEF09F07EEF09F055EC0CF03EC0F4FFF6
:101300003DC0F3FF3CC0DAFF3BC0D9FF3AC0FBFF52
:1013100039C0FAFF5F921100010E436E3F5040103A
:10132000D8A495EF09F097EF09F0C0EF09F0000E8F
:10133000436EDBEF09F020EE05F03F50D926405018
:10134000DA22DECFCEFFDDCFCFFFDBEF09F020EEDC
:1013500005F03F50D9264050DA22DECF41F0DDCFF4
:1013600042F042C041F0426A4150CF6E20EE05F09B
:101370003F50D9264050DA22DF50CE6EDBEF09F025
:1013800020EE03F03F50D9264050DA22DF50416E64
:10139000426A4250000AD8B4D0EF09F097EF09F042
:1013A0004150000AD8B4A7EF09F0010AD8B49BEF66
:1013B00009F097EF09F043501200010E436E3F50C1
:1013C0004010D8A4E6EF09F0E8EF09F0ECEF09F0DF
:1013D000000E436E29EF0AF020EE04F03F50D926AC
:1013E0004050DA22DF50D8A4F8EF09F0FAEF09F004
:1013F000FEEF09F09E909D9029EF0AF020EE04F098
:101400003F50D9264050DA22DE04D8B40AEF0AF061
:101410000CEF0AF01BEF0AF020EE07F03F50D92640
:101420004050DA22DE50DE10D8A419EF0AF01BEF8C
:101430000AF0E8EF09F020EE07F03F50D9264050BF
:10144000DA22DECF50F0DDCF51F09E90F28EF28C9A
:101450009D8043501200010E436E3F504010D8A4AF
:1014600034EF0AF036EF0AF04EEF0AF0000E436E4A
:1014700071EF0AF0CF0ECD1671EF0AF0CD50CF0B01
:101480001009CD6E71EF0AF0CD50CF0B2009CD6E53
:1014900071EF0AF0300ECD1271EF0AF020EE01F07C
:1014A0003F50D9264050DA22DF50416E426A425006
:1014B000000AD8B45EEF0AF036EF0AF04150000A95
:1014C000D8B43AEF0AF0010AD8B43EEF0AF0030AA2
:1014D000D8B444EF0AF0010AD8B44AEF0AF036EF64
:1014E0000AF0435012002B502C10D8A47AEF0AF0C7
:1014F0007CEF0AF080EF0AF0000E326EACEF0AF0DB
:1015000020EE01F02B50D9262C50DA22DF502D6E20
:10151000010E2E6E2D2A8FEF0AF0D8902E362D2E2A
:101520008DEF0AF02BC0D9FF2CC0DAFFDF502F6EF1
:101530002F50020D0B0EF324D96E000EF420DA6E3C
:10154000DECF30F0DDCF31F030C0D9FF31C0DAFF6F
:101550002E50DF1A010E326E3250120049504A10DE
:10156000D8A4B5EF0AF0B7EF0AF0B9EF0AF0E1EF4F
:101570000AF049C0D9FF4AC0DAFFDF504C6E20EEB6
:1015800001F04950D9264A50DA22DF504D6E000E44
:101590004E6E20EE02F04950D9264A50DA22DF5032
:1015A0004F6E4C0E3F6E000E406E09EC08F04B6E15
:1015B0004C0E3F6E000E406E4FC041F090EC08F0B4
:1015C0004B161200010E466E44504510D8A4EBEFA6
:1015D0000AF0EDEF0AF0EFEF0AF014EF0BF0CD9008
:1015E00044C03FF045C040F079EC0BF0461644C0D3
:1015F0003FF045C040F048EC0BF0461644C03FF0C9
:1016000045C040F02BEC0AF0461644C03FF045C000
:1016100040F08CEC09F0461644C03FF045C040F065
:10162000DDEC09F0466ECD8012002B502C10D8A4B2
:101630001CEF0BF01EEF0BF02CEF0BF047EF0BF055
:101640002DC0CEFF2EC0CFFF47EF0BF02E50CF6E38
:101650002DC0CEFF47EF0BF020EE03F02B50D92624
:101660002C50DA22DF502F6E306A3050000AD8B486
:101670003CEF0BF01EEF0BF02F50000AD8B426EF12
:101680000BF0010AD8B420EF0BF01EEF0BF01200A4
:10169000010E426E3F504010D8A451EF0BF053EFB3
:1016A0000BF057EF0BF0000E426E77EF0BF020EED1
:1016B00003F03F50D9264050DA22DE04D8A463EF6D
:1016C0000BF065EF0BF068EF0BF0CD8E77EF0BF0C2
:1016D00020EE03F03F50D9264050DA22DF50D8A444
:1016E00074EF0BF076EF0BF053EF0BF0CD9E425002
:1016F0001200010E426E3F504010D8A482EF0BF052
:1017000084EF0BF088EF0BF0000E426EA4EF0BF0AD
:101710003FC0D9FF40C0DAFFDE04D8A492EF0BF03F
:1017200094EF0BF097EF0BF0CD92A4EF0BF03FC0CE
:10173000D9FF40C0DAFFDF50D8A4A1EF0BF0A3EF30
:101740000BF084EF0BF0CD8242501200020EF66EC9
:10175000190EF76E000EF86E00EE80F010EE29F014
:101760000900F5CFEEFFE550E150FAE1D80EF66E34
:10177000180EF76E000EF86E00EE01F010EE2AF073
:101780000900F5CFEEFFE550E150FAE100EE50F030
:101790000F0EEE6AE806FDE15F905F9200013DEFFB
:1017A0000CF033503410D8A4D8EF0BF0DAEF0BF074
:1017B000DCEF0BF0FAEF0BF033C0D9FF34C0DAFFE7
:1017C000DF50356E20EE01F03350D9263450DA2246
:1017D000DF50366E000E376E20EE02F03350D92601
:1017E0003450DA22DF50386E350E2B6E000E2C6E20
:1017F00073EC0AF0120049504A10D8A402EF0CF022
:1018000004EF0CF006EF0CF020EF0CF049C0D9FF0C
:101810004AC0DAFFDF504B6E20EE01F04950D92666
:101820004A50DA22DF504C6E000E4D6E010E4E6EA5
:101830004B0E3F6E000E406E4EC041F090EC08F033
:1018400012001F0E2B6E000E2C6E3C0E2E6EB00E74
:101850002D6E15EC0BF05C2A040E5C6432EF0CF07C
:1018600034EF0CF03CEF0CF0280E336E000E346EAB
:10187000D1EC0BF0000E5C6E1200280E496E000ECB
:101880004A6EAEEC0AF0280E496E000E4A6EFBEC72
:101890000BF0F28EF28C1F0E446E000E456EE2ECE1
:1018A0000AF051EF0CF007EF00F09E9050505110ED
:1018B000D8B45DEF0CF05FEF0CF06BEF0CF002D8DA
:1018C0006BEF0CF00500FA6E5050FD6E5150FE6E3D
:1018D000FF6AFA5012001200800F810F820F830FEF
:1018E000840F890F8A0F8B0F8C0F8D0F920F930F20
:1018F000940F950F960F0103000101B03C421802AE
:1019000000000300000003010000030200000303C5
:1019100000000304000003050000000000000000B8
:0B1920000000000000000000000000BC
:10192C00F2941200F0921200F0901200F292120057
:04193C009E9C12005B
:020000040020DA
:08000000FFFFFFFFFFFFFFFF00
:020000040030CA
:0E000000FF02091EFF8181FF0FC00FE00F40BD
:00000001FF
